:100000000C9435000C945D000C945D000C945D0024
:100010000C945D000C945D000C945D000C945D00EC
:100020000C945D000C945D000C945D000C945D00DC
:100030000C945D000C945D000C945D000C945D00CC
:100040000C9464030C945D000C94D4030C94AE03E4
:100050000C945D000C945D000C945D000C945D00AC
:100060000C945D000C945D003B0511241FBECFEF86
:10007000D8E0DEBFCDBF22E0AAE9B1E001C01D9209
:10008000AE34B207E1F711E0A0E0B1E0ECEEFEE043
:1000900002C005900D92AA39B107D9F710E0C5E367
:1000A000D0E004C02197FE010E94C806C433D107E6
:1000B000C9F70E9406040C9474070C940000AF92D8
:1000C000BF92CF92DF92EF92FF920F931F93CF9345
:1000D000DF936C017B018B01040F151FEB015E01A7
:1000E000AE18BF08C017D10759F06991D601ED913C
:1000F000FC910190F081E02DC6010995892B79F7DB
:10010000C501DF91CF911F910F91FF90EF90DF908C
:10011000CF90BF90AF900895FC01538D448D252F53
:1001200030E0842F90E0821B930B541710F0CF9691
:10013000089501970895FC01918D828D981761F0C3
:10014000A28DAE0FBF2FB11D5D968C91928D9F5FDA
:100150009F73928F90E008958FEF9FEF0895FC01B9
:10016000918D828D981731F0828DE80FF11D858D6C
:1001700090E008958FEF9FEF08952FB7F894809146
:10018000AD019091AE01A091AF01B091B0012FBF30
:100190008093B9019093BA01A093BB01B093BC01C5
:1001A00081EB91E00E94AF0097FF26C02FB7F89433
:1001B0008091AD019091AE01A091AF01B091B001DD
:1001C0002FBF4091B9015091BA016091BB0170916C
:1001D000BC01841B950BA60BB70B4091B501509148
:1001E000B6016091B7017091B80184179507A60711
:1001F000B707B0F28FEF9FEF08958F929F92AF9263
:10020000BF92CF92DF92EF92FF92CF93DF930E9443
:10021000BD00FC0197FD88C08D32910509F04CC0EE
:10022000812C912C80E8A82E8FE3B82EC12CD12CE4
:100230007601C0E0D0E0E130F10559F1ED32F10591
:1002400009F447C0EE32F10509F445C0CF01C0976B
:100250000A97F8F4AAE0B0E0A70196010E948C0684
:100260006F01FF0FEE08FF08C60ED71EE81EF91E2D
:1002700080E3C81AD108E108F108CC2351F02DEC35
:100280003CEC4CEC5DE3C501B4010E94CE054B0192
:100290005C0181EB91E00E949B000E94BD00FC018B
:1002A000C0970A9740F2EE32F105B9F4CC2319F267
:1002B000CD2FD11118C025C0C0970A9708F4B0CF30
:1002C000EE32F10509F4ACCF81EB91E00E949B0086
:1002D0009ECFD1E0DECFC1E0DCCFE130F10509F403
:1002E000AACFDD2341F0F094E094D094C094C11CD7
:1002F000D11CE11CF11CC701B6010E946F05CC2383
:1003000041F0C701B6010E946F05A50194010E944A
:10031000CE05DF91CF91FF90EF90DF90CF90BF900F
:10032000AF909F908F90089560E070E0CB01F1CF87
:10033000FC01918D228D892F90E0805C9F4F821B64
:1003400091098F739927089581EB91E00E9498019C
:1003500021E0892B09F420E0822F089580E090E0CD
:10036000892B29F00E94A40181110C9400000895AA
:10037000FC01A48DA80FB92FB11DA35ABF4F2C911A
:10038000848D90E001968F739927848FA689B78911
:100390002C93A089B1898C91837080648C93938D08
:1003A000848D981306C00288F389E02D80818F7DAB
:1003B00080830895EF92FF920F931F93CF93DF9363
:1003C000EC0181E0888F9B8D8C8D98131AC0E88991
:1003D000F989808185FF15C09FB7F894EE89FF8960
:1003E0006083E889F98980818370806480839FBFFE
:1003F00081E090E0DF91CF911F910F91FF90EF90FE
:100400000895F62E0B8D10E00F5F1F4F0F7311270D
:10041000E02E8C8D8E110CC00FB607FCFACFE88948
:10042000F989808185FFF5CFCE010E94B801F1CF17
:10043000EB8DEC0FFD2FF11DE35AFF4FF0829FB7BC
:10044000F8940B8FEA89FB8980818062CFCFCF93AC
:10045000DF93EC01888D8823B9F0AA89BB89E889EC
:10046000F9898C9185FD03C0808186FD0DC00FB692
:1004700007FCF7CF8C9185FFF2CF808185FFEDCF10
:10048000CE010E94B801E9CFDF91CF910895FC0120
:1004900001900020E9F73197AF01481B590BBC01CF
:1004A00081EB91E00C945F0082E191E00C944702B3
:1004B0008F929F92AF92BF920F931F93CF93DF9330
:1004C000CDB7DEB7A1970FB6F894DEBF0FBECDBF94
:1004D00019A2423008F44AE08E010F5D1F4F842EAE
:1004E000912CB12CA12CA50194010E94A606E62F07
:1004F000B901CA01EA30F4F4E05DD801EE938D0150
:10050000232B242B252B79F790E080E0109719F00E
:10051000CD010E944702A1960FB6F894DEBF0FBE30
:10052000CDBFDF91CF911F910F91BF90AF909F9062
:100530008F900895E95CE1CF4F925F926F927F9226
:100540008F929F92AF92BF92CF92DF92EF92FF92E3
:100550006B017C01AC019B010E946F078823B1F005
:1005600085E191E00E9447027C010E9454028E0DB9
:100570009F1DFF90EF90DF90CF90BF90AF909F9026
:100580008F907F906F905F904F9008954601570134
:10059000E894B7F82FEF3FEF4FE75FE7C501B401ED
:1005A0000E946F0781110DC02FEF3FEF4FE75FE70C
:1005B000C501B4010E94680518161CF489E191E098
:1005C000D1CF2FEF3FEF4FE75FE4C701B6010E94A5
:1005D0006A0718161CF48DE191E0C4CF2FEF3FEFAE
:1005E0004FE75FECC701B6010E94680587FDF3CFB6
:1005F00020E030E0A901C701B6010E946805B12CD6
:10060000A12C87FF0AC06DE281EB91E00E94DA0124
:100610005C01F7FAF094F7F8F0942AE037ED43EA3A
:100620005BE3C701B6010E94CF062B013C010E948B
:100630003B076B017C010E946D059B01AC01C3016E
:10064000B2010E94CE062B013C014AE0C701B6016F
:100650000E9458027C01EA0CFB1C6EE281EB91E0E7
:100660000E94DA01E80EF91E20E030E040E251E499
:10067000C301B2010E94CE052B013C010E943B0741
:100680004B01B12CA12C4AE0C501B4010E945802D3
:10069000E80EF91EC501B4010E946D059B01AC0175
:1006A000C301B2010E94CE0620E030E040E251E4F6
:1006B0000E94CE050E943B0790E080E04AE00E9445
:1006C0005802E80EF91E51CF1F920F920FB60F92EB
:1006D00011242F933F938F939F93AF93BF93809158
:1006E000AD019091AE01A091AF01B091B0013091F8
:1006F000AC0123E0230F2D3758F50196A11DB11D44
:100700002093AC018093AD019093AE01A093AF0113
:10071000B093B0018091A8019091A901A091AA0184
:10072000B091AB010196A11DB11D8093A8019093DA
:10073000A901A093AA01B093AB01BF91AF919F9182
:100740008F913F912F910F900FBE0F901F90189592
:1007500026E8230F0296A11DB11DD2CF1F920F9242
:100760000FB60F9211242F933F934F935F936F9384
:100770007F938F939F93AF93BF93EF93FF9381EBFF
:1007800091E00E94B801FF91EF91BF91AF919F91CD
:100790008F917F916F915F914F913F912F910F902A
:1007A0000FBE0F901F9018951F920F920FB60F92C9
:1007B00011242F938F939F93EF93FF93E091C101A7
:1007C000F091C2018081E091C701F091C80182FDE2
:1007D0001BC090818091CA018F5F8F732091CB01E4
:1007E000821741F0E091CA01F0E0EF54FE4F958F7F
:1007F0008093CA01FF91EF919F918F912F910F905C
:100800000FBE0F901F9018958081F4CF789484B517
:10081000826084BD84B5816084BD85B5826085BDFC
:1008200085B5816085BD80916E00816080936E008A
:10083000109281008091810082608093810080917C
:10084000810081608093810080918000816080932D
:1008500080008091B10084608093B1008091B000ED
:1008600081608093B00080917A00846080937A00E8
:1008700080917A00826080937A0080917A00816012
:1008800080937A0080917A00806880937A00109239
:10089000C100E091C101F091C20182E08083E0914A
:1008A000BD01F091BE011082E091BF01F091C00145
:1008B0008FEC80831092C901E091C501F091C601CF
:1008C00086E08083E091C301F091C4018081806162
:1008D0008083E091C301F091C401808188608083AE
:1008E000E091C301F091C401808180688083E09130
:1008F000C301F091C40180818F7D8083C0E0D0E08E
:1009000001E010E082E0E82EF12C93E0C92ED12C1A
:100910008091A6019091A701892B51F481E291E089
:100920000E9447020E9454021093A7010093A6015F
:1009300081EB91E00E949801892B59F08091A601EA
:100940009091A7018130910509F442C0029709F402
:100950006BC08091A6019091A701039771F520913A
:100960009E0130919F014091A0015091A1016091A1
:10097000A2017091A3018091A4019091A5010E9410
:10098000CF0660939A0170939B0180939C01909392
:100990009D018CE791E00E94470260919A0170915D
:1009A0009B0180919C0190919D010E949C020E945C
:1009B00054021092A7011092A601209709F4A8CF23
:1009C0000E94A401882309F4A3CF0E940000A0CFB5
:1009D0000E94FD006093A2017093A3018093A40183
:1009E0009093A50120E030E0A9010E9468058823CA
:1009F00021F381E491E00E9447026091A20170918D
:100A0000A3018091A4019091A5010E949C020E94E3
:100A1000540284E591E00E9447020E945402F09241
:100A2000A701E092A60195CF0E94FD0060939E0170
:100A300070939F018093A0019093A10120E030E08A
:100A4000A9010E946805882309F4B7CF81E491E0E9
:100A50000E94470260919E0170919F018091A001C8
:100A60009091A1010E949C020E945402D092A70181
:100A7000C092A6016ECFE1EBF1E01382128288EE04
:100A800093E0A0E0B0E084839583A683B78384E0FD
:100A900091E09183808385EC90E09587848784EC56
:100AA00090E09787868780EC90E0918B808B81EC3B
:100AB00090E0938B828B82EC90E0958B848B86EC1C
:100AC00090E0978B868B118E128E138E148E089564
:100AD0000E94AA0508F481E00895E89409C097FBF4
:100AE0003EF490958095709561957F4F8F4F9F4F05
:100AF0009923A9F0F92F96E9BB279395F695879549
:100B000077956795B795F111F8CFFAF4BB0F11F40B
:100B100060FF1BC06F5F7F4F8F4F9F4F16C08823B2
:100B200011F096E911C0772321F09EE8872F762FE8
:100B300005C0662371F096E8862F70E060E02AF029
:100B40009A95660F771F881FDAF7880F9695879515
:100B500097F90895990F0008550FAA0BE0E8FEEFEA
:100B600016161706E807F907C0F012161306E40771
:100B7000F50798F0621B730B840B950B39F40A266A
:100B800061F0232B242B252B21F408950A2609F448
:100B9000A140A6958FEF811D811D08950E94E1055A
:100BA0000C9452060E94440638F00E944B0620F036
:100BB000952311F00C943B060C94410611240C94DF
:100BC00086060E94630670F3959FC1F3950F50E06F
:100BD000551F629FF001729FBB27F00DB11D639FEF
:100BE000AA27F00DB11DAA1F649F6627B00DA11D95
:100BF000661F829F2227B00DA11D621F739FB00D3B
:100C0000A11D621F839FA00D611D221F749F3327AA
:100C1000A00D611D231F849F600D211D822F762F43
:100C20006A2F11249F5750409AF0F1F088234AF020
:100C3000EE0FFF1FBB1F661F771F881F915050408C
:100C4000A9F79E3F510580F00C943B060C94860654
:100C50005F3FE4F3983ED4F3869577956795B79513
:100C6000F795E7959F5FC1F7FE2B880F911D96952D
:100C7000879597F9089597F99F6780E870E060E09D
:100C800008959FEF80EC089500240A941616170625
:100C900018060906089500240A941216130614066D
:100CA00005060895092E0394000C11F4882352F0D0
:100CB000BB0F40F4BF2B11F460FF04C06F5F7F4F88
:100CC0008F4F9F4F089557FD9058440F551F59F06F
:100CD0005F3F71F04795880F97FB991F61F09F3F29
:100CE00079F087950895121613061406551FF2CF52
:100CF0004695F1DF08C0161617061806991FF1CFA2
:100D000086957105610508940895E894BB276627C8
:100D10007727CB0197F908950E949706A59F900D1C
:100D2000B49F900DA49F800D911D11240895A29F42
:100D3000B001B39FC001A39F700D811D1124911DAF
:100D4000B29F700D811D1124911D0895A1E21A2EEC
:100D5000AA1BBB1BFD010DC0AA1FBB1FEE1FFF1F5F
:100D6000A217B307E407F50720F0A21BB30BE40BAF
:100D7000F50B661F771F881F991F1A9469F76095F6
:100D80007095809590959B01AC01BD01CF010895B0
:100D9000EE0FFF1F0590F491E02D09945058BB27EA
:100DA000AA270E94E6060C9452060E94440638F0D8
:100DB0000E944B0620F039F49F3F19F426F40C945E
:100DC00041060EF4E095E7FB0C943B06E92F0E94E8
:100DD000630658F3BA17620773078407950720F074
:100DE00079F4A6F50C9485060EF4E0950B2EBA2F37
:100DF000A02D0B01B90190010C01CA01A001112421
:100E0000FF27591B99F0593F50F4503E68F11A16CC
:100E1000F040A22F232F342F4427585FF3CF46955D
:100E200037952795A795F0405395C9F77EF41F167F
:100E3000BA0B620B730B840BBAF09150A1F0FF0F49
:100E4000BB1F661F771F881FC2F70EC0BA0F621F35
:100E5000731F841F48F4879577956795B795F79525
:100E60009E3F08F0B0CF9395880F08F09927EE0FBA
:100E70009795879508950E946B0688F09F5798F084
:100E8000B92F9927B751B0F0E1F0660F771F881F8F
:100E9000991F1AF0BA95C9F714C0B13091F00E94A9
:100EA0008506B1E008950C948506672F782F882772
:100EB000B85F39F0B93FCCF3869577956795B395D0
:100EC000D9F73EF490958095709561957F4F8F4F3F
:100ED0009F4F08950E94AA0508F48FEF08950E947D
:0C0EE000AA05880B990B0895F894FFCF29
:100EEC0000000000DA015F008C00270298019B00D3
:100EFC00AF000D0A006E616E00696E66006F76665B
:100F0C0000496E677265736520756E206E756D6530
:100F1C00726F2064697374696E746F20646520301D
:100F2C00004E756D65726F20696E677265736164D2
:100F3C006F3A2000496E677265736520756E207379
:100F4C006567756E646F206E756D65726F20646970
:100F5C007374696E746F2064652030004C6120736B
:100F6C00756D6120646520616D626F73206E756DA7
:0A0F7C0065726F732065733A000080
:00000001FF
